:020000040800F2
:10000000D8B80024A5030008CBB00008CD9A00089A
:10001000C9B000085D130008ADF60008000000003C
:10002000000000000000000000000000E5020008E1
:10003000F922000800000000410300082DC200085A
:10004000BF030008BF030008BF030008BF03000888
:10005000BF030008BF030008BF030008BF03000878
:10006000BF030008BF030008BF030008611C0008AD
:100070006D1C0008791C0008851C0008BF030008DF
:10008000911C0008BF030008BF03000849240008B2
:10009000B5240008BF030008BF030008BF03000821
:1000A000BF030008BF030008BF030008BF03000828
:1000B000B5C30008BF030008BF030008BF03000862
:1000C000BF030008BF030008BF030008BF03000808
:1000D000EDBE0008A9D60008BF030008BF03000852
:1000E000BF030008BF03000800000000BF030008B2
:1000F000BF030008BF030008BF030008BF030008D8
:10010000BF030008BF030008BF030008BF030008C7
:10011000BF030008BF030008BF030008BF030008B7
:10012000BF0300089D1C0008BF030008BF030008B0
:10013000BF030008BF030008BF030008BF03000897
:1001400000000000000000000000000000000000AF
:10015000BF030008BF030008BF030008BF03000877
:10016000BF030008BF030008BF030008BF03000867
:10017000BF030008DDB00008BF0300080000000056
:10018000BF030008BF030008D5C70008BF0300086D
:10019000BF030008BF030008BF030008BF03000837
:1001A000BF030008BF030008BF03000800000000F1
:1001B000BF030008BF030008BF030008BF03000817
:1001C000BF030008BF03000800000000000000009B
:1001D0000000000000000000BF0300080000000055
:1001E000000000000000000000000000000000000F
:1001F0000000000000000000BF030008BF0300086B
:10020000BF030008BF03000800000000BF03000890
:10021000BF030008BF030008BF030008BF030008B6
:10022000BF03000800000000BF030008000000003A
:10023000BF030008BF03000800000000BF03000860
:10024000BF030008BF030008BF030008BF03000886
:10025000BF030008BF030008BF030008BF03000876
:10026000BF030008BF030008BF030008BF03000866
:10027000BF030008BF030008BF0300080000000020
:10028000BF030008BF030008BF030008BF03000846
:1002900000000000BF030008BF03000800000000CA
:1002A00000000000BF030008BF030008BF030008F0
:1002B0009DD60008BF030008BF030008C124000842
:1002C000BF030008BF030008BF030008DFF810D019
:1002D00000F0F6F8004800479D190108AFF30080D0
:1002E000D8B800242C4B19680868B0E8F04F80F3A8
:1002F0000988BFF36F8F4FF0000080F311887047BB
:100300000000000008480068006880F308884FF08B
:10031000000080F3148862B661B6BFF34F8FBFF35D
:100320006F8F00DF00BF00BF08ED00E0DFF80C00BA
:10033000016841F470010160704700BF88ED00E082
:10034000EFF30980BFF36F8F134B1A681EF0100F85
:1003500008BF20ED108A20E9F04F106009B44FF07B
:10036000500080F31188BFF34F8FBFF36F8F12F0EF
:1003700011F84FF0000080F3118809BC1968086873
:10038000B0E8F04F1EF0100F08BFB0EC108A80F3F9
:100390000988BFF36F8F70478C010024EFF305804D
:1003A000704700000648804706480047FEE7FEE722
:1003B000FEE7FEE7FEE7FEE7FEE7FEE7FEE7FEE715
:1003C000F5C20008CD0200082DE9F05F05460020C7
:1003D00092469B4688460646814640241BE02846B6
:1003E00041464746224600F05AF853465A46C01A3C
:1003F000914110D311461846224600F041F82D1ABB
:1004000067EB01084F4622460120002100F038F832
:1004100017EB00094E41201EA4F10104DFDC484621
:1004200031462A464346BDE8F09F40EA01039B0758
:1004300003D009E008C9121F08C0042AFAD203E059
:1004400011F8013B00F8013B521EF9D27047D2B2BD
:1004500001E000F8012B491EFBD270470022F6E7AD
:1004600010B513460A4604461946FFF7F0FF20462A
:1004700010BD421C10F8011B0029FBD1801A7047E7
:10048000202A04DB203A00FA02F100207047914054
:10049000C2F1200320FA03F3194390407047202A49
:1004A00004DB203A21FA02F00021704721FA02F31E
:1004B000D040C2F120029140084319467047000025
:1004C000064C074D06E0E06840F0010394E80700A1
:1004D00098471034AC42F6D3FFF7FCFEEC3101082C
:1004E0000C32010870B58C1810F8015B15F0070389
:1004F00001D110F8013B2A1106D110F8012B03E0BD
:1005000010F8016B01F8016B5B1EF9D12B0705D4C4
:100510000023521E0DD401F8013BFAE710F8013B0D
:10052000CB1A921C03E013F8015B01F8015B521E29
:10053000F9D5A142D8D3002070BD00009FED201A4C
:10054000B5EE002A00EE012A9FED1E1ABDEEC20A8A
:10055000B5EEC02AF1EE10FA10EE100AB8BF01385D
:1005600000EE100A0020B8EEC00A32EE400A9FEDFD
:10057000162A20EE010ABCEEC01A11EE101A30EE57
:10058000021AB0EB512F18BF002102EE101A42F6EA
:10059000E81000FE010AC0F60100B8EE422A00EBA6
:1005A000810090ED011A30EE420AB7EE002A32EED9
:1005B000402A20EE010A90ED001A02EE010A70476F
:1005C00083F9223E00000044000000C4B0B5038857
:1005D0000D88AB4256D145884C88A54252D114882B
:1005E000A3424FD15488A5424CD105FB03FC43687C
:1005F00000254968B5EB9C0F506831D04FEA9C024A
:10060000524200BF93ED000A91ED001A30EE010A4C
:1006100003F1100E01F1100400F1100580ED000A45
:10062000013293ED010A91ED011A30EE010A80EDDD
:10063000010A93ED020A91ED021A30EE010A80EDF3
:10064000020A93ED030A91ED031A30EE010A734694
:10065000214680ED030A2846D4D121462846734618
:100660001CF003020CD05242B3EC010AB1EC011AA7
:1006700030EE010A051D013280ED000A2846F3D153
:10068000002000E0FD2040B2B0BD01804280436008
:10069000704700002DE9F04F8BB0B0F800B0B0F813
:1006A00002E0F34540F051810B88FD229B4540F06C
:1006B0004D814F88BB4240F04981BBF1000F436838
:1006C00000F029816FF003004C6800EB8B08CDF837
:1006D0001CE0002700934FF07E5906945E462046AA
:1006E000BBEB060009D0B9002046FFF7B7FE00209B
:1006F0000130874204F10404FAD104F1040AC4F879
:100700000090751E10D0A8EB87015046FFF7A6FE9B
:10071000012054460130864204F10404FAD1002D30
:1007200007F101072E46DBD1BBF1000F009BDDF87E
:100730001CE000F0F0800420CDF814B000EB8E0037
:1007400001901846ABF1010603EB8E044FEA8E02CE
:100750001D1DCEF10001002308919FED800A774610
:10076000814600BF5B4580F0F58003FB0EF0B0EEE4
:10077000403A09EB80010A9191ED001A0699B0EE1A
:10078000414A01EB800009902146304606E000BF57
:1007900091ED004A0138B0EE423A1144B5EEC04A3C
:1007A000F1EE10FA0ADDB4EEC34AB0EE442AF1EEDF
:1007B00010FAD8BFB0EE432A09E000BFB1EE442AD8
:1007C000B4EEC23AF1EE10FA01DBB0EE432A002893
:1007D000DED1B5EE402AF1EE10FA00F0BB80B0EEAB
:1007E000C13AB4EE423AF1EE10FA1CBFD84310EB16
:1007F0000B0004D0002000BF01308642FCD1B5EED2
:10080000401AF1EE10FA00F0A580CDE90346AEEBF8
:10081000030C0A99BCF1010F4FF07E5008600AD01A
:100820000120294691ED002A82EE012A01308742FB
:10083000A1EC012AF6D1DDE9080100BF91ED002A03
:1008400082EE012A0C1D013081ED002A2146F5D1EE
:10085000ACF1010B05994FF00008DDF818A04846EF
:10086000CDF80890984505D100EB8C060AEB8E0A6E
:1008700033E000BF90ED001A0A9CB0EE413ABBF1A4
:10088000000F94ED002A01EE423A00F1040680EDDB
:10089000003A15D00120002406EB040905EB040EF4
:1008A00099ED002A9EED003A01EE432A013087427D
:1008B00004F1040489ED002AEED12644DDF81CE0A1
:1008C000DDE908049AED002A94ED003A01EE432A8E
:1008D00004340130AAEC012AF4D106EB830001397B
:1008E00008F10108BED1DDF80890013F049E09F12E
:1008F0000409039C03F101030198A6F101060444D5
:10090000DDF814B005447FF42DAFB5EE401A009B1E
:10091000F1EE10FA20D10EFB0BF1002000294FF070
:1009200000020BD093ED000AB5EE400AF1EE10FA8A
:1009300004D101328A4203F10403F3D38A4208BF8F
:100940006FF004000BB0BDE8F08FFD2250B20BB089
:10095000BDE8F08FFB22F9E70022F7E70000000076
:100960002DE9F04F88B0B0F802C00B889C4540F0EC
:100970008880B0F800E013889E4540F08280B1F88E
:100980000290538899457CD14FEA9C04476804FB48
:1009900009F049680CF00305029101EB0010019089
:1009A00000202CF00303A0EB9C0107EB83060791CA
:1009B0004FEA89035168C5F1000A00919FED330A9F
:1009C000CDE9039CCDE9050E0099CE4601EB8008E8
:1009D000DDE901BC002CB0EE401AE146384627D0D4
:1009E000624607993846B0EE401A00BF92ED002AE1
:1009F00090ED003A03EE021A1A4490ED014A92ED8E
:100A0000002A04EE021A1A4490ED025A92ED002ACE
:100A100005EE021A1A4490ED036A92ED002A06EEE2
:100A2000021A013100F110001A44DFD1D9463046D4
:100A300055B1514690ED002A99ED003A02EE031AA5
:100A4000043001319944F5D108F1040088ED001A11
:100A5000BEF1010E0CF1040C0BF1040B8046B9D170
:100A6000DDF80C900598DDF810C04844DDF818E07A
:100A700007EB8C07BEF1010E06EB8C06A2D100201D
:100A800000E0FD2040B208B0BDE8F08F000000009B
:100A9000B0B503880D88AB4256D145884C88A54235
:100AA00052D11488A3424FD15488A5424CD105FBA2
:100AB00003FC436800254968B5EB9C0F506831D0B2
:100AC0004FEA9C02524200BF93ED000A91ED001ADA
:100AD00030EE410A03F1100E01F1100400F110058F
:100AE00080ED000A013293ED010A91ED011A30EE1A
:100AF000410A80ED010A93ED020A91ED021A30EEEF
:100B0000410A80ED020A93ED030A91ED031A30EEDB
:100B1000410A7346214680ED030A2846D4D1214676
:100B2000284673461CF003020CD05242B3EC010A73
:100B3000B1EC011A30EE410A051D013280ED000AC8
:100B40002846F3D1002000E0FD2040B2B0BD0000F7
:100B50002DE9F04F83B002884B889A424DD14488EA
:100B60000B889C4249D10023D1F804804FEA940CB1
:100B7000416804F0030ECDF80080A3EB94040294C6
:100B8000140196000194CEF1000B4046BCF1000F19
:100B90001ED04746029C00BF08683D463860374477
:100BA000486807EB0609A85101F11000D1F808A028
:100BB000013447F806A009EB0607C968374449F82D
:100BC00006100146E8D101996C18014603E000BF08
:100BD000009800EB8304BEF1000F07D05D4600BF14
:100BE00051F8040B013520603444F9D10133013A46
:100BF00008F10408CAD1002000E0FD2040B203B093
:100C0000BDE8F08F9FED1F1A20EE010A9FED1F2A0D
:100C1000BDEEC01AB5EEC00AF1EE10FA11EE100AE0
:100C2000B8BF013801EE100A0020B8EEC11A30EE4C
:100C3000410A9FED151A20EE010ABCEEC01A11EE12
:100C4000101A30EE021AB0EB512F18BF002102EE3D
:100C5000101A42F6E81000FE010AC0F60100B8EED4
:100C6000422A00EB810090ED011A30EE420AB7EE05
:100C7000002A32EE402A20EE010A90ED001A02EE20
:100C8000010A704783F9223E00000044000000C4BE
:100C900010B5044636492068884202D0354A904251
:100CA00005D1D1F8080310F4403F05D117E03248D0
:100CB000006810F4403F12D006F082FE6168B1F582
:100CC000803F06D0B1F5003F03D0B1F5403F28D1B9
:100CD00003E0090CB0FBF1F023E0800821E00021E3
:100CE0004FF4002005F094FD61688A03920B18D13F
:100CF0008A140C2A15D2DFE802F01406060606064E
:100D0000060B0D0F1113890C4900B0FBF1F008E040
:100D1000000906E0400904E0800902E0C00900E0A3
:100D2000000A40081549884205D82068816821F4E6
:100D30004071816010BD1249884207D820688168DF
:100D400021F4407141F48071816010BD0D498842E9
:100D500007D82068816821F4407141F400718160F6
:100D600010BD2068816841F44071816010BD0000B1
:100D7000002002400021024008630258105E5F001C
:100D800020BCBE0040787D0110B5846B216E11F04F
:100D9000500F06D0216EC90630D5204602F0FEF86D
:100DA00010BD206E40F400702066206801680907BD
:100DB00012D509F055FCE8B12068C068800419D448
:100DC000206E20F480702066206EC00412D4206E45
:100DD00040F0010020660DE0C06880070AD1206E57
:100DE00020F480702066206EC00403D4206E40F092
:100DF00001002066204602F0CFF810BDA16DC96C3D
:100E0000BDE81040084710B5806B016E41F040010D
:100E10000166416E41F00401416602F0BFF810BD69
:100E200010B5806B02F0B9F810BD000070B5044633
:100E3000206809F009FC50BB20688168264A1142ED
:100E400009D0206E40F010002066606E40F0010076
:100E50006066012070BD81681F4E7F3E3140491C95
:100E6000816004F0BFFB05461C4920681C4B88428A
:100E700001D0984201D11B4A00E01B4A926802F05F
:100E80001F02984200D0014681421DD0E2B120E00D
:100E900009F0DAFB20B9206881683140491C816083
:100EA00004F0A0FB401B02280ED920680068C04354
:100EB000C00709D0206E40F010002066606E40F040
:100EC00001006066012070BD20680168C943C90740
:100ED000DED1002070BD00003F00008000200240F5
:100EE0000021024000230240006302580122024810
:100EF000114604F06FBB00000008025800220248AF
:100F0000012104F067BB00000008025801220248DA
:100F1000082104F05FBB00000008025800220248CC
:100F2000082104F057BB00000008025870B50446C1
:100F3000FFF7E4FF922000F081F985490622122094
:100F400000F05EF9FFF7D2FF814E814D1C3EF07834
:100F5000C0B368782978000200B2084300EE100A96
:100F600096ED031AD4ED0C0AB8EEC00A20EE011A71
:100F700094ED080A51EE000AC4ED000AE878A97859
:100F8000000200B2084300EE900A94ED0D1AF8EE4C
:100F9000E01AD6ED030A61EEA01A11EE801A84ED74
:100FA000011A68792979000200B20843708101EEC4
:100FB000100AB8EEC11A61EE200A20EE800A84ED14
:100FC000020A34E0FFE768782978000200B208439B
:100FD00000EE100AD6ED030AB8EEC00A60EE200A51
:100FE00094ED080A60EE800AC4ED000AE878A9785A
:100FF000000200B2084300EE900AB8EEE01AD6ED07
:10100000030A21EE201A21EE001A84ED011A6879F4
:101010002979000200B20843708101EE100AB8EE8F
:10102000C11A61EE200A20EE800A84ED020AFFF761
:1010300075FF47490822002000F0E2F8FFF766FF3D
:1010400028780F285DD1F07880B3E878A97800027D
:1010500000B2084300EE100AD4ED090AB8EEC01A37
:1010600096ED040A51EE000AC4ED030A6879297965
:10107000000200B2084300EE900A94ED0A1AF8EE5E
:10108000E00A10EE801A84ED041AE879A9790002CA
:1010900000B20843708100EE900A94ED0B1AF8EE4E
:1010A000E00A10EE801A84ED051A2AE0FFE7E878DE
:1010B000A978000200B2084300EE100AF8EEC00A58
:1010C00096ED040A60EE800AC4ED030A6879297976
:1010D000000200B2084300EE900AF8EEE00A60EE6B
:1010E000800AC4ED040AE879A979000200B2084335
:1010F000708100EE900AF8EEE00A20EE800A84ED9E
:10110000050AFFF7FBFEA22000F098F81049022222
:10111000222000F075F8FFF7E9FE28786978C00012
:1011200040EA51107081B0F5806F02DBA0F50060DD
:101130007081B6F90A00B4EE001A00EE100AF8EE5B
:10114000C00AB3EE070A00EE810A84ED070A70BDFB
:101150005C00002470B50D461D49086000201D4C40
:10116000A0700FF0F7FAA1780843A0700FF086FB8B
:10117000A1780843A0701DB1174800F053F924E08E
:1011800015489FED160A80ED090A9FED150A80EDBE
:101190000A0A9FED140A80ED0B0A9FED130A80EDF9
:1011A0000C0A9FED120A80ED0D0A9FED110A80EDE9
:1011B0000E0A9FED100A80ED0F0A9FED0F0A80EDD9
:1011C000080A9FED0E0A80ED060AA07870BD0000A7
:1011D0008800002440000024D40D0024F0A032BA7E
:1011E000B9F3AFBAB1EFBBBA0B6F993E2A98933DF2
:1011F000000000007A841D410F187F3F000020424C
:1012000070B50D46144640F0800000F017F806E077
:10121000552000F013F805F8010B641EE4B2002C11
:10122000F6D170BD10B50C4640F0800000F006F815
:10123000552000F003F8207010BD000001B582B009
:101240004FF47A700123009001AA044802A90068B3
:1012500007F034FA9DF804000EBD00008800002459
:1012600010B50C46FFF7EAFF2046BDE81040FFF737
:10127000E5BFB6EE002A92ED020AB0EE421AD2EDB8
:10128000030A00EE401AD0ED001AD0ED013A00EE4C
:10129000E01A21EE213A92ED011AD2ED001A61EE28
:1012A000002A41EEE02A61EE200A41EE800A02EEB9
:1012B000A33A90ED020AF0EE002A00EE803A23EE07
:1012C000220A81ED000A92ED010AD2ED021A92ED96
:1012D000001AD2ED030A20EE213AD0ED003A90ED4B
:1012E000014A01EE203A23EE233AF0EE423A40EE74
:1012F000403A40EEE03A61EEA00A41EE400A03EEC9
:10130000843A90ED020A00EE803A23EE220A81ED43
:10131000010AD2ED010AD2ED031A92ED020A92ED12
:10132000001A20EEA13A60EE211AD0ED003A00EE4C
:10133000E02A01EE403A41EE201A90ED011A00EE4B
:10134000402A23EE233A90ED020A01EE813A02EEA2
:10135000003A23EE220A81ED020A7047FEE70428D4
:101360004FF00000704700207047000010B505499D
:10137000002205480CF0AAFB044903480CF098FB36
:10138000002010BDD09F0024F4920024D0970024A8
:1013900010B50C46014606480CF08AFB04480CF0D8
:1013A0005BFB04482168416001210170002010BDF1
:1013B000F4920024C8040024002070470A4610B5A7
:1013C0000849D1F8BC12D1F81412002901D001202B
:1013D00010BD014603480CF079FBBDE81040014800
:1013E0000CF00ABCF4920024F0B506464FF6FF70EC
:1013F000002341F22105044611E0F25C80EA02205C
:101400000022070403D585EA400080B201E004EA27
:101410004000521CD2B2082AF3D35B1CDBB28B42D1
:10142000EBD3F0BD2DE9F04F04462DED048B89B0D0
:1014300000200790089000F0D1FEFE4E86ED050AD0
:10144000DFF8F49304AFDFF8F4A30DF104084FF0D4
:101450007C5BDFEDFB9A00F0C1FED6ED050AF94991
:1014600030EE600A10EE100A884214DD9FEDF60A95
:1014700084ED090A9FEDF50A84ED0A0A9FEDF40A4E
:1014800084ED0B0A9FEDF30A84ED0F0A9FEDF20A3B
:1014900084ED060A87E19FEDF10A00F061FE9FED01
:1014A000F00A84ED0F0A84ED090A84ED0A0A84ED3E
:1014B0000B0A0025F8E0FFF721FD9220FFF7BEFEA2
:1014C0000622122007A9FFF79BFEFFF70FFD9DF8EC
:1014D0001D009DF81C10000200B2084300EE100A27
:1014E000D6ED030AB8EEC00A20EE201A84ED001AE9
:1014F0009DF81F009DF81E10000200B2084300EE88
:10150000100AD6ED030AB8EEC00A20EE200A84EDD8
:10151000010A9DF821009DF82010000200B2084346
:1015200001EE900AF8EEE11A61EEA00AC4ED020A9B
:1015300021EE011A00EE001A00EEA01AB0EE410AE8
:101540000FF0BFF8B0EE408A94ED0F0A30EE080AB3
:1015500084ED0F0AFFF7E2FC0822002007A9FFF73D
:101560004FFEFFF7D3FC9DF81C000F2840D19DF8DB
:101570001F009DF81E10000200B2084300EE100A82
:10158000F8EEC00A96ED040A60EE800AC4ED030A84
:1015900094ED091A71EE200AC4ED090A9DF82100A4
:1015A0009DF82010000200B2084300EE900AF8EE09
:1015B000E00A60EE800AC4ED040A94ED0A1A71EEA6
:1015C000200AC4ED0A0A9DF823009DF822100002AB
:1015D00000B2084300EE900AF8EEE00A20EE800A1E
:1015E00084ED050AD4ED0B0A30EE800A84ED0B0A77
:1015F000002D7DD0B4EEE88AF1EE10FA01DDF0EEB8
:10160000488AB4EEC98AF1EE10FA01D2B0EE489AD7
:10161000002004EB800191ED030A07EB8001D1ED7E
:10162000000AB4EEE00AF1EE10FA01DD81ED000AE5
:1016300008EB8001D1ED000AB4EEE00AF1EE10FAF9
:1016400001D281ED000A401CC0B20328E1D338EE7C
:10165000C90A86ED060A002007EB8001D1ED000AD9
:1016600008EB800191ED001A09EB800170EEC10AD0
:10167000C1ED000A401CC0B20328EDD310EE100AE1
:10168000584515DCD9F80000504511DCD9F80400A4
:1016900050450DDCD9F80800504509DCB0EE690A68
:1016A00000F05EFD6D1CADB2F0888542FFF403AF23
:1016B000F288D4ED0F0A00EE102AB8EE400A80EE50
:1016C000801A84ED0F1A002000EE102A04EB80012E
:1016D000B8EE400AD1ED090A80EE801A81ED091AB0
:1016E000401CC0B20328EFD3FFF708FCA22000E0A3
:1016F00063E0FFF7A3FD0222222007A9FFF780FD88
:10170000FFF7F4FB9DF81C009DF81D10C00040EA97
:101710005110B0F5806F02DBA0F5006000B200EE62
:10172000100AB4EE001AF8EEC00AB3EE070A00EE93
:10173000810A84ED060AB088401CB080B069584523
:101740003FF789AE94ED0F0ADFED460A30EE600AEE
:101750000FF0EAFE10EE100A5845F1DCD9F800004F
:101760005045EDDCD9F804005045E9DCD9F8080013
:101770005045E5DC94ED090A0FF0D6FE10EE100A94
:10178000394DA842DCDC94ED0A0A0FF0CDFE10EED4
:10179000100AA842D4DC94ED0B0A0FF0C5FE10EE3F
:1017A000100AA842CCDC94ED0F0ADFED300A80EE7F
:1017B000801A84ED081A00259EE0F0EE488AB0EE0B
:1017C000489A002004EB800191ED030A07EB8001A9
:1017D00081ED000A08EB800181ED000A401CC0B2D7
:1017E0000328EFD333E7FFF789FB9220FFF726FDAD
:1017F0000622122007A9FFF703FDFFF777FB9DF8EC
:101800001D009DF81C10000200B2084300EE100AF3
:10181000D6ED030AB8EEC00A60EE200A94ED080A7D
:1018200060EE800AC4ED000A94ED0C1ADFED101A88
:1018300020E0000040000024C80D00249A99193EC1
:101840006F12033A00002041F0A032BAB9F3AFBAE8
:10185000B1EFBBBA7A841D41000020420AD7A33BF6
:1018600000000000CDCC1C410AD7233CC3F51C412D
:10187000CDCC4C3F21EE211A9FED242A00EE821A96
:1018800084ED0C1A9DF81F009DF81E10000200B296
:10189000084300EE900AB8EEE01AD6ED030A21EEF6
:1018A000201A21EE001A84ED011AD4ED0D2A62EE01
:1018B000A12A41EE022AC4ED0D2A9DF821009DF8CF
:1018C0002010000200B2084301EE100AB8EEC11A5F
:1018D00061EE200A20EE800A84ED020AD4ED0E0AA1
:1018E00060EEA10A40EE020AC4ED0E0AB0EE690AEB
:1018F00000F036FC6D1CADB230898542FFF473AF49
:1019000009B0BDEC048BBDE8F08F0000CDCC4C3E9F
:101910004FF4FA7010F09EF900F024F8FCE7000094
:1019200070B50C46154601230370042380F8A830D7
:101930000022062100F58E7010F05CFD20460EF0AE
:10194000FDF92846064ABDE870400021DFED020A95
:101950009FED020A09F004BE0000000000003443BD
:10196000142901082DED028B82B000243E4D02E0C7
:10197000012010F06FF995F890000028F8D03B4A4C
:101980003B48A2F1B001FFF7CBFF384F384E394D3D
:101990003649354A3648B0390FF02AFA354B3349C3
:1019A000314A0C333248B03900970FF023F896F8DB
:1019B000B001012800D10CB120B108E008F084FE8C
:1019C000012404E0012C02D108F0D0FE002496F896
:1019D000B001012805D00028DAD1686810F03AF982
:1019E000D6E7DFF8888001219FED238BA8F1B008AE
:1019F000234898ED1E0AB0EE483BB0EE482BB1EEFE
:101A0000400AB0EE481BB7EEC04AB0EE480B0AF0F1
:101A100025FB686810F01EF998ED1D0A184804218E
:101A2000B0EE483BB1EE400AB0EE482BB7EEC04AEC
:101A3000B0EE481BB0EE480B0AF010FB686810F0DF
:101A400009F99FED100A1048062196ED482AF0EE9C
:101A5000401AB0EE401AF0EE400A10F06FF86868D5
:101A600010F0F8F894E70000308700241089002473
:101A7000088A002418020024000000000000000072
:101A80006806002400000000080700244FF4FA70E4
:101A900010F0E0F800F024F8FCE7000070B50C4608
:101AA0001546022380F83830032380F87030002276
:101AB0000521E03010F09EFC20460EF03FF928464C
:101AC000064ABDE870400021DFED020A9FED020AE0
:101AD00009F046BD00000000000034432029010841
:101AE0002DED028B82B00024424D02E0012010F067
:101AF000B1F895F890000028F8D03F4AA2F51A7185
:101B000001F1B000FFF7CAFF3B4A9032A2F1480151
:101B100001F1900009F05AFD374F384DA7F5DC76FA
:101B20003749344A01F1B0000FF0ECFB334B344934
:101B3000304A143301F1B00000970FF079F996F8AC
:101B4000B001012800D10CB120B108E00AF0EAF898
:101B5000012404E0012C02D10AF02CF9002496F8AB
:101B6000B001012805D00028DAD1686810F072F8B9
:101B7000D6E7DFF88C8002219FED228B234898ED79
:101B80001D0AB0EE483BB0EE482BB1EE400AB0EE75
:101B9000481BB7EEC04AB0EE480B0AF05FFA68681F
:101BA00010F058F898ED1E0A18480321B0EE483B93
:101BB000B1EE400AB0EE482BB7EEC04AB0EE481B7B
:101BC000B0EE480B0AF04AFA686810F043F89FED4F
:101BD000100A1048052196ED392AF0EE401AB0EEB1
:101BE000401AF0EE400A0FF0A9FF686810F032F8D2
:101BF00096E7000030870024C08B002454020024A4
:101C0000588900240000000000000000680600243D
:101C100000000000080700242DE9F04100F076FDE7
:101C200010EE100A0C4900270C4D884211DA0024EE
:101C300047F2305628688663642010F00BF8286855
:101C40008763642010F006F8641C032CF2DBBDE807
:101C5000F08128688763FAE70000C0410C0A00247D
:101C6000014801F0EDBE00008C0C0024014801F099
:101C7000E7BE000048090024014801F0E1BE000071
:101C8000D0080024014801F0DBBE0000040D002450
:101C9000014801F0D5BE0000F0050024014801F024
:101CA000CFBE0000140C002410B52C4A01689142EC
:101CB0003AD02A4A1832914236D0284A30329142DC
:101CC00032D0264A483291422ED0244A6032914284
:101CD0002AD0224A7832914226D0204A903291422C
:101CE00022D01E4AA83291421ED01D4A91421BD0DA
:101CF0001B4A1832914217D0194A3032914213D000
:101D0000174A483291420FD0154A603291420BD0A7
:101D1000134A7832914207D0114A9032914203D04F
:101D20000F4AA832914214D1CAB2103A1823B2FB1A
:101D3000F3F20C4C02F00703E35CC365032A04D9F9
:101D40006FF30901091D816506E06FF309018165E3
:101D500002E021F0FF018165806D10BD100002409E
:101D6000100402407828010810B501680123224CB4
:101D7000CAB2A1421BD0204C1434A14217D01E4C31
:101D80002834A14213D01C4C3C34A1420FD01A4C31
:101D90005034A1420BD0184C6434A14207D0164CE9
:101DA0007834A14203D0144C8C34A1420FD1083AAC
:101DB0001421B2FBF1F1114A02EB810202660F4AD3
:101DC0008032426601F01F018B40836610BD103ADD
:101DD0001824B2FBF4F20A4C2144A82900D8083296
:101DE000084901EB8201016606498031416602F033
:101DF0001F018B40836610BD0854025800580258DA
:101E0000F0FBFDBF000802400279521E072A31D8BC
:101E1000194B016899421BD0174B1433994217D0C4
:101E2000154B2833994213D0134B3C3399420FD0B2
:101E3000114B503399420BD00F4B6433994207D06A
:101E40000D4B7833994203D00B4B8C33994207D119
:101E50000A4901EB8201C16608494031016706E089
:101E6000074901EB8201C166054940310167012143
:101E700091404167704700000854025800590258C9
:101E800000090240014610B500208B694FF0C07474
:101E90008A6A002B0ED0B3F5005F1AD062B3012A14
:101EA0002AD0022A28D0032A03D1C96AC90100D541
:101EB000012010BD1AB1012A06D0022AF9D1C96A3F
:101EC000C901F6D5012010BDC96AA142FBD101208C
:101ED00010BD52B1012A0AD0022A06D0032AF7D136
:101EE000C96AA142F4D1012010BD012010BDC96A08
:101EF000C901FBD5012010BD012010BD2DE9F04F17
:101F0000856D8A4E894FDFF824C2A836DFF81C821F
:101F1000DFF818920CF1180CDFF810A208F1300865
:101F2000DFF808B209F1480904680AF1600A0BF108
:101F3000780BBC426DD064456BD0444569D04C45AC
:101F400067D0544565D05C4563D0DFF8E0E10EF121
:101F5000900E74455DD0B4425BD0DFF8D4E1744597
:101F600057D0DFF8CCE10EF1180E744551D0DFF8F0
:101F7000C0E10EF1300E74454BD0DFF8B4E10EF144
:101F8000480E744545D0DFF8A8E10EF1600E7445A7
:101F90003FD0DFF89CE10EF1780E744539D0DFF8C0
:101FA00090E10EF1900E744533D0DFF884E10EF12C
:101FB000A80E74452DD0DFF87CE1744529D0DFF8F8
:101FC00074E10EF1140E744523D0DFF868E10EF1D0
:101FD000280E74451DD0DFF85CE10EF13C0E74450F
:101FE00017D0DFF850E10EF1500E744511D0DFF834
:101FF00044E10EF1640E74450BD0DFF838E10EF1C8
:10200000780E744505D0DFF82CE10EF18C0E744586
:1020100009D1D0E919E4CEF80440C46E1CB1D0E96E
:102020001CE4CEF804400468BC422ED064452CD099
:1020300044452AD04C4528D0544526D05C4524D070
:102040003A4F9037BC4220D0B4421ED0384EB442F2
:102050001BD0374E1836B44217D0354E3036B44206
:1020600013D0334E4836B4420FD0314E6036B442AE
:102070000BD02F4E7836B44207D02D4E9036B44256
:1020800003D02B4EA836B4421BD190F85C4004F02C
:102090001F063F24B440AC600468256825F4802501
:1020A0002560046863608368402B05D003689960ED
:1020B0000068C260BDE8F08F03689A600068C16084
:1020C000F8E71C4EB4421BD01A4E1436B44217D057
:1020D000184E2836B44213D0164E3C36B4420FD0B8
:1020E000144E5036B4420BD0124E6436B44207D070
:1020F000104E7836B44203D00E4E8C36B442D9D14D
:1021000090F85C4004F01F060124B4406C60046841
:1021100063608368402B04D0036899600068C260E4
:10212000C8E703689A600068C160C3E71000024016
:10213000100402400854025808B50748406800904F
:10214000064800990269914202D2C168491CC160E7
:102150000099016108BD0000001000E0280400247F
:102160000A4841680A4AD2ED000A4268521AF8EE5B
:10217000601A01EE102AB8EE411A60EE211AB4EE90
:10218000E11AF1EE10FAF0D370470000001000E001
:102190002804002400B52DED028B81B00D4949685B
:1021A00000910168009A511A00EE101A0A49F8EEDF
:1021B000400A91ED000AB8EE400A80EE808A00994C
:1021C0000160FFF7B9FF01B0B0EE480ABDEC028B29
:1021D00000BD0000001000E02804002410B500F04D
:1021E00043F80C489FED0C1A90ED000A8188C088D6
:1021F00000EE901AB8EE400AF8EE600A00EE810A8E
:1022000000EE900A9FED051AF8EE600A00EE810AD2
:1022100010BD0000580400246F12833ABD37863584
:102220000D490A6842F080720A600C4900224A6037
:102230000B6843F001030B600949484309490860F2
:102240004FF47A73B0FBF3F34B60054BB0FBF3F044
:102250008860CA6070470000FCED00E0001000E0FC
:1022600040420F00280400242DE9F84F2048406820
:102270000090FFF761FFDFF87C904FF0FF334FF0E5
:10228000000A00985146D9F80C20E2FB03010446ED
:102290000D46C9E90E01D9F800B0002320462946B1
:1022A0005A46FEF791F806460F463046A0FB0B2132
:1022B00007FB0B1106FB0A13A71A65EB030809F1CC
:1022C000300426600023D9F804604146384632467F
:1022D000FEF77AF880B2A0807043381A68EB0A01E2
:1022E000D9F808200023FEF76FF8E080BDE8F88FEA
:1022F000001000E0280400247047B6EE002A92ED9A
:10230000020AB0EE421AD2ED030A00EE401AD0EDF6
:10231000001AD0ED013A00EEE01A21EE213A92EDDA
:10232000011AD2ED001A61EE002A41EEA02A61EEF8
:10233000200A41EEC00A02EEA33A90ED020AF0EE46
:10234000002A00EE803A23EE220A81ED000A92ED87
:10235000010AD2ED021A92ED001AD2ED030A20EE24
:10236000213AD0ED003A90ED014A01EE603A23EEB9
:10237000233AF0EE423A40EE403A40EEE03A61EE67
:10238000A00A41EE000A03EE843A90ED020A00EE44
:10239000803A23EE220A81ED010AD2ED010AD2ED44
:1023A000031A92ED020A92ED001A20EEA13A60EEB5
:1023B000211AD0ED003A00EEE02A01EE003A41EE9B
:1023C000601A90ED011A00EE402A23EE233A90EDB8
:1023D000020A01EE813A02EE003A23EE220A81ED72
:1023E000020A704772B6FEE710B58AB00024029464
:1023F000039402200490012005900694079402A9FA
:10240000104802F0EAFA08B1FFF7ECFF02220D488B
:1024100000231146009402F024FB08B1FFF7E2FF0D
:1024200008480022012102F05FFA08B1FFF7DAFF45
:10243000044802F0A3FF002801D0FFF7D3FF0AB041
:1024400010BD000068060024014802F0FBBB00003C
:102450006806002410B58AB000240294012003907D
:102460000220049005900694079402A9104802F0F7
:10247000B4FA08B1FFF7B6FF02220D480023114657
:10248000009402F0EEFA08B1FFF7ACFF0848002212
:10249000102102F029FA08B1FFF7A4FF044802F066
:1024A0006DFF002801D0FFF79DFF0AB010BD0000AE
:1024B00008070024014802F0C5BB000008070024FB
:1024C000014802F0BFBB0000A807002430B5426BF2
:1024D000036853F8844F4FF6FC718C4344EA82043E
:1024E0001C60036853F8844F058F24F47F0444EA8A
:1024F00005441C60836B1A44036853F8884F8C436F
:1025000044EA82041C60036853F8884F858F24F4E2
:10251000FE0444EA05441C60C36B02EB43020368FB
:1025200053F8A04F8C4344EA82041C60036853F8BC
:10253000A04FB0F8405024F4FE0444EA05441C6067
:10254000D0E9103403FB0422036853F8B04F8C43E6
:1025500044EA82041C60036853F8B04FB0F8485056
:1025600024F4FE0444EA05441C60D0E9123403FB61
:102570000422036853F8AC4F8C4344EA82041C6085
:10258000D0E9143403FB0422036853F8F04F8C4362
:1025900044EA82041C60036853F8F04FB0F85850C6
:1025A00024F47C1444EA05441C60836D02EB43036D
:1025B000026852F8C04F8C4344EA830111600168FD
:1025C00051F8C02FB0F85C3022F47C1242EA03428A
:1025D0000A60016851F8C02F90F8603022F07C52F8
:1025E00042EA03620A60416B224A02EB8101C16642
:1025F000826B01EB82020267C36B02EBC30242678C
:10260000D0E91034634302EB83028267D0E91234CD
:10261000634302EB8302C267D0E91434634302EBE5
:102620008302C0F88020836D02EBC302C0F88420CF
:10263000C46D836E5C4302EB8402C0F88820046E94
:102640005C4302EB8402C0F890200B4B9A4208D9FD
:102650009830416841F02001416003210170012060
:1026600030BD002200E004C1D0F890308B42FAD88F
:10267000002030BD00AC0040FCD30040F0B5D1E9F3
:1026800001650C692C430D68002E1AD045F0804579
:102690002C4391F82070D1E9066535434E6946EA2E
:1026A000076635438E8945EA0645D0F88460806E1A
:1026B000584306EB80031C605D60083300200B4E1E
:1026C0000FE044EA8544E4E71418155CE77845EA2E
:1026D0000765A77864783F0447EA0424254320C3AC
:1026E000001DCC68345D8442EED8F0BD802801081E
:1026F0000246C2F3471002F01F02082A03D00A2A3A
:1027000003D108F09DB808F0A9B87047134800F04D
:102710001F01091DBFF34F8F114A1060203020396F
:102720000029FADCBFF34F8FBFF36F8F0B482038BF
:1027300090ED080ADFED0B0AB8EE400A20EE200A01
:10274000DFED090A20EE200AF2EE060A20EE200A4A
:10275000D0ED010A30EE200A70470000000400248A
:102760005CEF00E0000080373333534010B50B4876
:102770000168001D0468001D0068084400280BD093
:102780000749082207F062FB054904222046BDE8FC
:102790001040103107F05ABB10BD000000E8F11FD7
:1027A000AE0400242DE9F0479CB004460D464FF0DE
:1027B000000894F85C0001280DD0012084F85C002A
:1027C000002718971997DFF8F09020683B4E48458E
:1027D00005D1009604E002201CB0BDE8F087009708
:1027E000009840B1009807F037FF8246206807F054
:1027F00033FF40B10AE0206E40F02000206684F8EC
:102800005C700120E8E7BAF1000F09D0206E40F0BB
:10281000200020664FF0010884F85C704046DBE73A
:102820002068484501D0B04201D1254800E0254844
:1028300040F61F72244B296811B38168D5F804C093
:1028400021F4404141EA0C0181602168494501D0F1
:10285000B14208D1D9F80810C1F30001B368C3F33D
:102860000003194302E09968C1F300010029D3D1A4
:10287000AB68296819438368934319438160CBE7A8
:10288000816821F4404181602168494501D0B1420D
:1028900008D1D9F80810C1F30001B368C3F30003ED
:1028A000194302E09968C1F300010029B4D181689D
:1028B00091438160B0E70000002002400021024007
:1028C0000023024000630258006002582DE9F84FCF
:1028D00004460D464FF0000800200090F84FDFF846
:1028E000E4A3F94E94F85C00012813D04FF00109DD
:1028F00084F85C90206807F0ABFE68B1206E40F071
:10290000200020664FF00108002084F85C0040465B
:10291000BDE8F88F0220FBE7286800280FDB21685C
:10292000B9420CD0CA69030329D090FAA0F0B0FADA
:1029300080F000F01F0009FA00F00243CA61A88885
:1029400021682A6800F4407301EB93110B6B00F0CF
:102950001F004FF01F0CC2F384620CFA00FC82408F
:1029600023EA0C0313430B63206807F071FE8346D0
:10297000206807F065FE5BEA000B03D061E1C0F35D
:102980008460D6E72168AA68286800F0007301EB2C
:10299000D3514B694FF0070CC0F304500CFA00FC04
:1029A000824023EA0C0313434B612068B84206D1EE
:1029B0006969C268C2F3C102520091401BE0C34979
:1029C0000968B9EB117F06D16969C268C2F3820256
:1029D000520091400FE0C168C90606D46969C26817
:1029E000C2F382025200914005E06969C26802F0B8
:1029F0001002520891402B69042B57D02A6800EB33
:102A000083036033B84207D1186802F0F8400843E6
:102A100040F00040186007E0186802F0F8420A43EE
:102A200000F00040104318602068B8421CD12A69A9
:102A3000E96900EB8200026E22F080720A430266AE
:102A400095F8201020682A6901290AD00021B8428F
:102A500094D100EB8200026E22F000720A430266FB
:102A6000EFE04FF00071F2E795F821102A69012993
:102A700016D0002100EB8200026E22F000420A43D1
:102A80000266297E20682A6901290CD00021036989
:102A900002F01F0223F4F04391400B430361D0E0A6
:102AA0004FF00041E6E74FF40061F0E7B8426FD124
:102AB000002107F0BFFD00036CD02068002107F063
:102AC000B9FD90FAA0F0B0FA80F12868020368D04E
:102AD00090FAA0F0B0FA80F0814204D10022206880
:102AE000114607F0C5FD2068012107F0A3FD000392
:102AF0005AD02068012107F09DFD90FAA0F0B0FAAD
:102B000080F12868020356D090FAA0F0B0FA80F065
:102B1000814204D120680022012107F0A9FD20682C
:102B2000022107F087FD000348D02068022107F04A
:102B300081FD90FAA0F0B0FA80F12868020344D039
:102B400090FAA0F0B0FA80F0814204D1206800220F
:102B5000022107F08DFD2068032107F06BFD0003C3
:102B600036D02068032107F065FD90FAA0F0B0FA96
:102B700080F12868020332D090FAA0F0B0FA80F019
:102B800081425ED120680022032107F071FD58E0E8
:102B900028E0FFE72068002107F04CFDC0F38461C6
:102BA00093E7C0F3846097E72068012107F042FDB6
:102BB000C0F38461A5E7C0F38460A9E7206802211F
:102BC00007F038FDC0F38461B7E7C0F38460BBE76A
:102BD0002068032107F02EFDC0F38461C9E7C0F32C
:102BE0008460CDE7016E2A7801F0F841B1EB826F85
:102BF00003D1016E21F0004101662068416E2A7800
:102C000001F0F841B1EB826F03D1416E21F0004138
:102C100041662068816E2A7801F0F841B1EB826F3D
:102C200003D1816E21F0004181662068C16E2A784F
:102C300001F0F841B1EB826F03D1C16E21F0004188
:102C4000C166206807F000FD00287FF45DAE2068B3
:102C5000EA682968B8421E4B0ED1D0F8B0C002F025
:102C60001802C1F3130BD3400B402CEA0B0C4CEAB7
:102C7000030CC0F8B0C00DE0D0F8C0C002F01802DC
:102C8000C1F3130BD3400B402CEA0B0C4CEA030CA2
:102C9000C0F8C0C0E868504579D10E482168DFF817
:102CA00038B0DFF838A08142DFF834E00D4A0E4B2F
:102CB000DFF838C04FD12868584519D10122B4E057
:102CC000006002580000FF47002102400010005C35
:102CD000FFFF0F00002002400200300440002019D6
:102CE0008000501D0008302E001060320020903609
:102CF000A0F1066BBBF1040B0FD0A0F1496ABAF149
:102D0000080A0CD0A0F1865ABAF1100A09D0DFF8EF
:102D100040A2504507D18F4A87E0524685E072466F
:102D200083E08D4A81E0DFF834A250457DD09042A7
:102D300001D11A4679E0984201D1624675E0884A8D
:102D4000904201D1874A70E0874A904201D1874A78
:102D50006BE0002269E0B14233D12868584501D1C7
:102D6000012262E0A0F1066BBBF1040B10D0A0F1D0
:102D7000496ABAF1080A0DD0A0F1865ABAF1100AD0
:102D80000AD0DFF8CCA1504508D1724A4DE05CE092
:102D900052464AE0724648E06F4A46E0DFF8BCA17E
:102DA000504542D0904201D11A463EE0984201D1AE
:102DB00062463AE06C4A904201D16C4A35E000220A
:102DC00033E0B94230D12868584501D101222CE0C6
:102DD000A0F1066BBBF1040B0FD0A0F1496ABAF168
:102DE000080A0CD0A0F1865ABAF1100A09D0DFF80F
:102DF00060A1504507D1574A17E0524615E0724688
:102E000013E0554A11E0DFF854A150450DD090422F
:102E100001D11A4609E0564A604506D0904201D1D8
:102E2000544A02E0002200E00022B9420DD0CB69F2
:102E3000100319D092FAA2F0B0FA80F000F01F004F
:102E400009FA00F943EA0903CB612A68002ABFF6B0
:102E50005BAD494B2068494DDFF82491984201D081
:102E6000B04204D1294603E0C2F38460E6E7494654
:102E7000896801F0E071984201D0B0420AD1D3F8DC
:102E800008C0CCF3000CD6F808A0CAF3000A4CEA3C
:102E90000A0C03E0D7F808C0CCF3000CBCF1000F1B
:102EA00006D0206E40F0200020664FF001082BE590
:102EB000DFF8D0C0624520D15FEA012C1DD4B842B2
:102EC000F5D1984202D0B04200D04D4641F4000006
:102ED000A96821F0E0710143A9602B482B490068E3
:102EE000B0FBF1F0401C4000009002E00098401E52
:102EF000009000980028F9D106E5DFF894C06245FB
:102F000011D15FEAC11C0ED4B842D0D1984202D090
:102F1000B04200D04D4641F08070A96821F0E071C8
:102F20000143A960F0E4DFF86CC06245BFD14A02FA
:102F3000BDD4B842BBD1984202D0B04200D04D4679
:102F400041F48000A96821F0E0710143A960DBE44D
:102F50002000F0140002B025000180210004002AA6
:102F600000002143000052470000844B0000B84F8E
:102F70000040C03A0080F03E0020024000230240A2
:102F800000630258000052C738000024400D0300BF
:102F9000000021C3000084CB7047704770470000D9
:102FA000F8B50446002500260096002C02D0206EBD
:102FB00010B107E00120F8BD204600F045F9666633
:102FC00084F85C6020688168C1F3407119B1816840
:102FD000914A1140816020688168C1F3007199B9FC
:102FE00081688E4A114041F0805181608C488D4942
:102FF0000068B0FBF1F0401C009002E00098401E19
:10300000009000980028F9D120688168C1F3007110
:1030100041B9216E41F010012166616E41F001015C
:103020006166012507F014FB216EC90600D430B19A
:10303000206E40F01000206601252846F8BD206E65
:1030400020F4807040F002002066206807F0FCFA4F
:10305000754EF8B9754A2068754B904201D0984278
:1030600007D19168C1F300019F68C7F30007394396
:1030700002E0B168C1F3000161B9904201D0984209
:1030800001D16C4800E06C486168826822F47C12CF
:103090000A4382602168B14220D1E26BE0680243BA
:1030A000607E4303A068082810D00C2810D01C288C
:1030B00010D0182810D0002000F00C0043EA400087
:1030C000024394F8200042EA004011E00020F3E7B8
:1030D0000420F1E70820EFE71C20EDE7A268E06B91
:1030E00094F820301043627E520342EA03421043B8
:1030F00094F82020012A03D1A28C521E40EA4240BB
:10310000A26A2AB1E36A02F47872024343EA020037
:10311000B1420CD1CA68494B1A400243CA602068C8
:103120000169626B21F040611143016104E0CA68EA
:10313000434B1A400243CA60206807F089FA0746E9
:10314000206807F07DFA074329D12068B04206D1F4
:10315000217E94F83820890341EA420103E0227E6F
:10316000216B41EA8231C26844F203039A430A4365
:10317000C26094F84400012820D02068016921F041
:103180000101016120680169226C21F07041114345
:1031900001612068B04202D02046FDF779FD206928
:1031A000012830D02068016B21F00F010163206EEF
:1031B00020F0020040F0010020663EE72068B042A7
:1031C0000ED1D4E912121143D4E914231A43114346
:1031D00002691C4B1A40114341F001010161D1E722
:1031E000B4F848300127D4E913125B1E1143626D15
:1031F00007EB03431A4311430269124B5B1E1A404B
:1032000011430161BEE72068016BE26921F00F0103
:10321000521E11430163CAE7C0FFFF5FC0FFFF7F7B
:1032200038000024400D03000060025800200240D6
:103230000021024000230240006302580740F0FFD3
:1032400003C0F0FF1FF800FC70B586B006461421DD
:1032500001A8FDF703F91E493068884236D11D48A0
:10326000016841F020010160006800F0200000903A
:1032700018480830016841F004010160006800F05E
:103280000400009010200190032002900025039577
:10329000114801A902F094F8114C1048206009204F
:1032A0006060A560E5604FF480602061400060616F
:1032B0008000A0614011E06125626562204600F057
:1032C00093FF08B1FFF78EF8B465A66306B070BD32
:1032D00000200240D84402580008025888000240EA
:1032E000F00500242DE9F047044688469146404FFA
:1032F000DFF800A12068B84201D0504501D13E4915
:1033000000E03E49896801F01F0507F0A1F910B1FE
:103310000220BDE8F08794F85C0001280BD0012062
:1033200084F85C00002645B1052D06D0092D04D097
:1033300084F85C60EDE70220EBE72046FDF776FDC0
:1033400010B184F85C60E4E7206E40F601618843C8
:1033500040F4807020662068504500D007468742C0
:1033600000D01DB9206E20F480102066206EC004AD
:1033700004D5606E20F00600606600E06666A16D10
:103380001F48C863A16D1F480864A16D1E48C8642A
:103390001C202168086084F85C602068416841F066
:1033A000100141601949206888420DD194F8381005
:1033B0004900C26822F003020A43C2602068C16863
:1033C00041F00101C16005E0216BC26822F00302F7
:1033D0000A43C26021684B46A06D4246403101F06D
:1033E000FBF821688A680A4B1A40121D8A6090E730
:1033F00000200240002102400023024000630258E6
:10340000890D0008210E0008070E00080060025810
:10341000C0FFFF7F2DE9F84F044602F0E3F800906B
:103420005CB194F83500022809D080206065002046
:1034300084F834000120BDE8F88F0120FBE7D14E6D
:10344000D04FD0491836DFF83C833037DFF834935B
:10345000DFF830A308F14808DFF828B309F1600964
:1034600020680AF1780A0BF1900B88422ED0B04206
:103470002CD0B8422AD0404528D0484526D05045C7
:1034800024D0584522D0BF4AA83290421ED0BE4A0E
:1034900090421BD0BC4A1832904217D0BA4A303200
:1034A000904213D0B84A483290420FD0B64A6032A8
:1034B00090420BD0B44A7832904207D0B24A903250
:1034C000904203D0B04AA83290420AD1026822F05A
:1034D0001E0202602068426922F080024261256873
:1034E00004E0026822F00E0202602568206888422B
:1034F0004DD0B0424BD0B84249D0404547D0484566
:1035000045D0504543D0584541D09E4AA8329042BC
:103510003DD09D4A90423AD09B4A1832904236D0D4
:10352000994A3032904232D0974A483290422ED057
:10353000954A603290422AD0934A7832904226D0FF
:10354000914A9032904222D08F4AA83290421ED0A7
:103550008E4A90421BD08D4A1432904217D08B4A2B
:103560002832904213D0894A3C3290420FD0874A89
:10357000503290420BD0854A6432904207D0834A41
:103580007832904203D0814A8C32904204D1206E2E
:10359000026822F4807202607A49206888422ED044
:1035A000B0422CD0B8422AD0404528D0484526D039
:1035B000504524D0584522D07249A83188421ED0A7
:1035C000714988421BD070491831884217D06E4922
:1035D0003031884213D06C49483188420FD06A4953
:1035E000603188420BD068497831884207D06649FB
:1035F0009031884203D06449A831884204D10168DF
:1036000021F00101016013E0016821F00101016076
:103610000EE001F0E7FF0099401A052808D92020A4
:10362000343420620320607000202070012002E703
:103630002868C007EDD1534A0121206890422ED05E
:10364000B0422CD0B8422AD0404528D0484526D098
:10365000504524D0584522D04A4BA83398421ED01A
:10366000494B98421BD0484B1833984217D0464BD1
:103670003033984213D0444B483398420FD0424BDA
:10368000603398420BD0404B7833984207D03E4B82
:103690009033984203D03C4BA833984208D1A06D98
:1036A00094F85C3003F01F053F23AB40836007E0D4
:1036B000A06D94F85C3003F01F0301FA03F343603C
:1036C000206890424DD0B0424BD0B84249D04045DE
:1036D00047D0484545D0504543D0584541D0294A68
:1036E000A83290423DD0284A90423AD0264A183219
:1036F000904236D0244A3032904232D0224A483268
:1037000090422ED0204A603290422AD01E4A78320F
:10371000904226D01C4A9032904222D01A4AA832B7
:1037200090421ED0194A90421BD0184A143290423F
:1037300017D0164A2832904213D0144A3C32904295
:103740000FD0124A503290420BD0104A643290424D
:1037500007D00E4A7832904203D00C4A8C32904205
:103760000BD1D4E919205060E06E30B1026822F428
:1037700080720260D4E91C205060343461700020F3
:10378000207058E61000024010040240085402580D
:103790002DE9F05F002808D090F83510022906D0F6
:1037A000802141650120BDE8F09F0120FBE7A14A8F
:1037B000A04BA04C18329F4D30339E4E4834DFF85A
:1037C00074B26035DFF870C27836DFF86C82DFF8EB
:1037D00068920CF1300CDFF860A208F16008016813
:1037E00009F17809944F0AF1900A594531D0914274
:1037F0002FD099422DD0A1422BD0A94229D0B1423D
:1038000027D0DFF830E20EF1900E714521D0DFF8BD
:1038100024E20EF1A80E71451BD0DFF81CE2AEF1D8
:10382000180E714515D0B94213D0DFF80CE20EF135
:10383000180E71450DD061450BD0DFF8FCE10EF19B
:10384000480E714505D0414503D0494501D0514549
:1038500037D14FF0040E80F835E0594527D091421A
:1038600025D0994223D0A14221D0A9421FD0B142F4
:103870001DD070489030814219D06E48A8308142E6
:1038800015D06D481838814211D0B9420FD06A481E
:10389000183081420BD0614509D0674848308142D9
:1038A00005D0414503D0494501D0514504D10868B0
:1038B00020F001000860BAE0086820F0010008600C
:1038C000B5E0D1F800E02EF00E0EC1F800E001687E
:1038D000DE46594531D091422FD099422DD0A14298
:1038E0002BD0A94229D0B14227D0DFF848B10BF143
:1038F000900B594521D0DFF83CB10BF1A80B59458D
:103900001BD0DFF834B1ABF1180B594515D0B942D3
:1039100013D0DFF824B10BF1180B59450DD06145D8
:103920000BD0DFF814B10BF1480B594505D04145D8
:1039300003D0494501D0514506D1D1F800B02BF054
:10394000010BC1F800B005E0D1F800B02BF0010B7D
:10395000C1F800B001684FF0010B714546D09142AB
:1039600044D0994242D0A14240D0A9423ED0B14277
:103970003CD0304A9032914238D02E4AA8329142FF
:1039800034D02D4A183A914230D0B9422ED02A4A2A
:10399000183291422AD0614528D0274A48329142B4
:1039A00024D0414522D0494520D051451ED0234A3C
:1039B00091421BD0214A1432914217D01F4A28321B
:1039C000914213D01D4A3C3291420FD01B4A5032D3
:1039D00091420BD0194A6432914207D0174A78328B
:1039E000914203D0154A8C32914218D1016E0A6877
:1039F00022F480720A60816D90F85C2002F01F0250
:103A00000BFA02F24A60D0E919215160C16E31B15E
:103A10000A6822F480720A60D0E91C21516080F8A3
:103A200035B0002180F83410016D01B188470020C5
:103A3000B9E6000010000240280402400854025871
:103A40002DE9FF5F0446002001904FF41651FD4818
:103A50000068B0FBF1F00090A56D2E682968FA4F60
:103A6000DFF8E4B3DFF8E083DFF8DC930BF1180B49
:103A7000DFF8D4A308F13008206809F148090AF1F9
:103A8000600AB8423BD05A46904238D0404536D0C2
:103A9000484534D0504532D0EB4A783290422ED04F
:103AA000E94A903290422AD0E74AA832904226D082
:103AB000E64A904223D0E54A183290421FD0E34BA9
:103AC000303398421BD0E14B4833984217D0DFF88F
:103AD0007CC30CF1600C604511D0DFF870C30CF1B1
:103AE000780C60450BD0DFF864C30CF1900C604596
:103AF00005D0DFF858E30EF1A80E70457ED194F89A
:103B00005C10082301F01F0103FA01F232424BD08E
:103B1000B84232D0584530D040452ED048452CD000
:103B200050452AD0C8497831884226D0C6499031BC
:103B3000884222D0C449A83188421ED0C349884255
:103B40001BD0C2491831884217D0C0493031884251
:103B500013D0BE49483188420FD0BC4960318842F9
:103B60000BD0BA497831884207D0B84990318842A1
:103B700003D0B649A831884203D1016801F004019D
:103B800002E0016801F0080171B1016821F004014F
:103B9000016094F85C0000F01F0003FA00F2AA60D4
:103BA000606D40F00100606594F85C00012100F058
:103BB0001F008140314240D02068B84234D058457F
:103BC00032D0404530D048452ED050452CD09E4A6A
:103BD0007832904228D09C4A9032904224D09A4A1F
:103BE000A832904220D0994A90421DD0974A18326C
:103BF000904219D0954A3032904200E0D2E113D081
:103C0000924A483290420FD0904A603290420BD094
:103C10008E4A7832904207D08C4A9032904203D03C
:103C20008A4AA83290427DD1406910F0800F04D0BA
:103C3000A960606D40F00200606594F85C000421AA
:103C400000F01F00814031423ED02068B84232D09F
:103C5000584530D040452ED048452CD050452AD02C
:103C6000794A7832904226D0774A9032904222D0D8
:103C7000754AA83290421ED0744A90421BD0734AB3
:103C80001832904217D0714A3032904213D06F4AA6
:103C9000483290420FD06D4A603290420BD06B4A4E
:103CA0007832904207D0694A9032904203D0674AF6
:103CB000A83290424ED1006810F0020F04D0A960E3
:103CC000606D40F00400606594F85C00102100F025
:103CD0001F008140314260D02068B84234D058453E
:103CE00032D0404530D048452ED050452CD0564A91
:103CF0007832904228D0544A9032904224D0524A8E
:103D0000A832904220D0514A90421DD04F4A1832DA
:103D1000904219D04D4A3032904215D04B4A483229
:103D2000904200E014E00FD0484A603290420BD03D
:103D3000464A7832904207D0444A9032904203D0AB
:103D4000424AA832904207D1006800F0080006E01D
:103D5000006872E70068B7E7006800F0040058B137
:103D6000A9602068016849030CD50068000304D4E9
:103D7000216C09B1204688470FE0A16C69B120464B
:103D800088470AE00168C90503D4016821F00801E9
:103D90000160216C09B12046884794F85C0020211D
:103DA00000F01F00814031427BD02068B84232D001
:103DB000584530D040452ED048452CD050452AD0CB
:103DC000214A7832904226D01F4A9032904222D027
:103DD0001D4AA83290421ED01C4A90421BD01B4A5A
:103DE0001832904217D0194A3032904213D0174AF5
:103DF000483290420FD0154A603290420BD0134A9D
:103E00007832904207D0114A9032904203D00F4A44
:103E1000A832904203D1006800F0100002E0006870
:103E200000F00200E8B3A96094F83500042812D02D
:103E30002068016849033DD50068000335D4616CF2
:103E400079B305E03800002410000240100402405D
:103E5000204688473FE02068016821F01601016094
:103E60002068416921F080014161206C08B9A06C93
:103E700020B12068016821F00801016094F85C001D
:103E800000F01F013F208840A860012084F8350021
:103E9000002084F83400216D002974D004B020463D
:103EA00000E018E0BDE8F05F0847E16B99B12046FB
:103EB000884710E00168C90509D4016821F01001A4
:103EC0000160012084F83500002084F83400E16BA3
:103ED00009B120468847606D002854D0606DC00746
:103EE00058D0042084F835002068B84231D05845B5
:103EF0002FD040452DD048452BD0504529D0B7492B
:103F0000884226D0B5491831884222D0B349303191
:103F100088421ED0B24988421BD0B149183188422C
:103F200017D0AF493031884213D0AD49483188426B
:103F30000FD0AB49603188420BD0A9497831884213
:103F400007D0A7499031884203D0A549A8318842BB
:103F500004D1016821F00101016003E0016821F052
:103F60000101016021680198009A401C0190904273
:103F700002D80868C007F6D10868C00704D003203B
:103F800084F8350003E087E0012084F83500002044
:103F900084F83400E16C00297ED004B02046BDE8EE
:103FA000F05F08478F4EB0421BD08E4E1436B042A1
:103FB00017D08C4E2836B04213D08A4E3C36B042D1
:103FC0000FD0884E5036B0420BD0864E6436B04289
:103FD00007D0844E7836B04203D0824E8C36B04241
:103FE0005AD106684FF0040E94F85CB00BF01F0B2A
:103FF0000EFA0BFE1EEA010FCDF80CE05ED05FEA70
:10400000467E5BD503986860300411D5F00307D471
:10401000A16C002940D004B02046BDE8F05F0847FD
:10402000216C002938D004B02046BDE8F05F084775
:10403000B0063BD42068B8422DD068496039884228
:1040400029D0404527D0484525D0504523D0634945
:10405000884220D06149183188421CD05F493031F4
:10406000884218D05E49884215D0904213D05C49EE
:10407000303188420FD098420DD059496031884282
:1040800009D057497831884205D0604503D054495A
:10409000A831884206D100E07CE0016821F00801E7
:1040A000016003E0016821F004010160216C002936
:1040B00070D004B02046BDE8F05F08474FF0020E14
:1040C0000EFA0BFE1EEA010FCDF808E063D05FEA9E
:1040D000867E60D502986860300411D5F00307D45D
:1040E000616C002978D004B02046BDE8F05F084735
:1040F000E16B002970D004B02046BDE8F05F0847AE
:10410000B0063FD42068B8422DD034496039884287
:1041100029D0404527D0484525D0504523D02F49A8
:10412000884220D02D49183188421CD02B4930318B
:10413000884218D02A49884215D0904213D0284985
:10414000303188420FD098420DD0254960318842E5
:1041500009D023497831884205D0604503D02049F1
:10416000A831884204D1016821F01401016003E004
:10417000016821F00A010160012084F83500002067
:1041800084F83400E16B002926D004B02046BDE855
:10419000F05F084720E0082202FA0BF20A421BD027
:1041A000310719D5016821F00E01016094F85C0017
:1041B00000F01F01012000FA01F16960606584F8D8
:1041C0003500002084F83400E16C002904D004B0EC
:1041D0002046BDE8F05F0847BDE8FF9F8800024029
:1041E00010040240085402582DE9F05F044601F023
:1041F000F9F90646002C7DD0F24F0222DFF8C48385
:104200000025DFF8C093DFF8BCA308F13008DFF821
:10421000B4B309F1480920680AF1600A0BF1780B80
:10422000B84232D0E749183188422ED040452CD0D0
:1042300048452AD0504528D0584526D0E1499031EC
:10424000884222D0DF49A83188421ED0DE49884208
:104250001BD0DD491831884217D0DB493031884204
:1042600013D0D949483188420FD0D74960318842AC
:104270000BD0D5497831884207D0D3499031884254
:1042800003D0D149A83188427ED184F8352084F802
:104290003450B84234D0CB491831884230D04045F0
:1042A0002ED048452CD050452AD0584528D0C54955
:1042B0009031884224D0C349A831884220D0C249D5
:1042C00088421DD0C0491831884219D0BE493031CA
:1042D000884215D0BC494831884211D0BA49603172
:1042E00088420DD0B8497831884209D0B64990311A
:1042F000884200E009E003D0B349A831884207D1E1
:10430000016821F00101016013E00120BDE8F09F88
:10431000016821F0010101600BE001F063F9801BED
:10432000052806D920206065032084F83500012087
:10433000ECE720680068C007EFD122681168A34845
:104340000140D4E902031843D4E904363343184347
:10435000A3691843E3691843236A18430843616A51
:10436000042903D1D4E90B13194308436168A1F16F
:104370002903052B0DD9163B032B0AD9083B012B2A
:1043800007D9083B032B00E02AE002D9743903293E
:1043900001D840F4801010602068406920F00701C7
:1043A000606A40EA010604280DD1A06A0643E06A6B
:1043B00048B12046FDF766FD28B140206065012028
:1043C00084F83500A2E7206846612046FDF76CFCC2
:1043D00094F85C1001F01F023F219140816066E07B
:1043E0007B4988421BD07A4B1433984217D0784BC4
:1043F0002833984213D0764B3C3398420FD0744BFD
:10440000503398420BD0724B6433984207D0704BB4
:104410007833984203D06E4B8C3398427ED18842D9
:1044200011D06B49143188420DD069492831884236
:1044300009D067493C31884205D0654950318842EE
:1044400001D06349643184F8352084F8345002681F
:1044500060490A40A16840297ED080297DD0002192
:10446000E36841EAD301236941EAD301636941EA80
:10447000D301A36941EAD301E36941EAD301236A85
:1044800041EA13111143016051492068494208442F
:104490001421B0FBF1F08000E0652046FDF704FC3C
:1044A00094F85C1001F01F020121914041602068E6
:1044B000B84256D043491831884252D0404550D076
:1044C00048454ED050454CD058454AD03D49903192
:1044D000884246D03B49A831884242D03A49884276
:1044E0003FD03949183188423BD037493031884272
:1044F00037D035494831884233D03349603188421A
:104500002FD03149783188422BD02F4990318842C1
:1045100027D02D49A831884223D000E02DE02C4936
:1045200088421ED02A49143188421AD0284928319D
:10453000884216D026493C31884212D02449503155
:1045400088420ED02249643188420AD0204978310D
:10455000884206D01E4901E00AE00BE08C31884217
:1045600029D12046FDF700FCA06880280CD00CE083
:10457000102175E74FF4804172E740206065032009
:1045800084F835000120C1E66560216E207908605D
:10459000D4E9191048606068401E072808D82046F2
:1045A000FDF732FCE06E0560D4E91C10486002E0C3
:1045B000E566256765676565012084F8350000209C
:1045C000A4E6000010000240100402403F8010FEEC
:1045D000085402580F00FEFF2DE9F84F0446002052
:1045E0000090002C15D094F83400012813D001203D
:1045F00084F8340094F835500020012D0DD04FF48C
:104600000061616584F83400012000900098BDE8E5
:10461000F88F0120FBE70220F9E7022584F83550E6
:104620006065A54DA44EA44F1835DFF88CC2303616
:10463000DFF884824837DFF88092DFF87CA208F147
:104640006008DFF874B209F1780920680AF1900A6D
:104650000BF1A80B60453BD0A84239D0B04237D00F
:10466000B84235D0404533D0484531D050452FD0A1
:1046700058452DD0DFF844C2604529D0DFF83CC250
:104680000CF1180C604523D0DFF830C20CF1300C6F
:1046900060451DD0DFF824C20CF1480C604517D0EE
:1046A000DFF818C20CF1600C604511D0DFF80CC2C5
:1046B0000CF1780C60450BD0DFF800C20CF1900CC7
:1046C000604505D0DFF8F4C10CF1A80C604506D1B7
:1046D000D0F800C02CF0010CC0F800C005E0D0F804
:1046E00000C02CF0010CC0F800C02046FDF706FC0D
:1046F0007149206888422CD0A8422AD0B04228D0E4
:10470000B84226D0404524D0484522D0504520D03C
:1047100058451ED0694A90421BD0684A18329042D0
:1047200017D0664A3032904213D0644A48329042E1
:104730000FD0624A603290420BD0604A7832904289
:1047400007D05E4A9032904203D05C4AA832904231
:104750000DD1026822F01E0242F016020260206CA7
:1047600090B12068026842F0080202600CE0026822
:1047700022F00E0242F00A020260206C20B1206892
:10478000026842F004020260206888424BD0A842CE
:1047900049D0B04247D0B84245D0404543D04845C3
:1047A00041D050453FD058453DD0444A90423AD040
:1047B000424A1832904236D0404A3032904232D08B
:1047C0003E4A483290422ED03C4A603290422AD033
:1047D0003A4A7832904226D0384A9032904222D0DB
:1047E000364AA83290421ED0354A90421BD0344AF5
:1047F0001432904217D0324A2832904213D0304AB5
:104800003C3290420FD02E4A503290420BD02C4A6C
:104810006432904207D02A4A7832904203D0284A24
:104820008C3290420DD1206E0268D20303D502680B
:1048300042F480720260E06E18B1026842F4807245
:104840000260206888422CD0A8422AD0B04228D0EA
:10485000B84226D0404524D0484522D0504520D0EB
:1048600058451ED0154988421BD01449183188423A
:1048700017D012493031884213D01049483188424C
:104880000FD00E49603188420BD00C4978318842F4
:1048900007D00A499031884203D00849A83188429C
:1048A00004D1016841F001010160AFE6016841F007
:1048B00001010160AAE6000010000240100402405D
:1048C0000854025870B5044600F08CFE0546601C82
:1048D00002D004480078044400F084FE401BA0424B
:1048E000FAD370BD2C00002410B590F89830012B3D
:1048F00008D0022B06D050F89C1F41F00201016045
:10490000012010BD03689C6D0C4204D1DC6D44F0A5
:104910000104DC6505E09C6D31EA04041CD003242D
:10492000DC658B0504D5036853F8E04F14431C6025
:104930004B0504D5036853F8E44F14431C6000682A
:10494000426D084B0B401A4342650748026842EA31
:1049500091710160002010BDDC6D44F00204DC6543
:10496000DFE70000FFFFCF3F14A8004070B504460A
:1049700094F89800022806D054F89C0F40F00800E4
:104980002060012070BD2068D0F8C03013F07C5F3B
:104990000AD0D0F8C4309B020DD554F89C0F40F4D7
:1049A00000702060012070BD54F89C0F40F0200082
:1049B0002060012070BDD0F8C400C0F3044520463B
:1049C0002B46FDF75BFE21680120A840C1F8D0000E
:1049D000C4F89400002070BD704710B590F898207E
:1049E000012A08D0022A06D050F89C1F41F002018B
:1049F0000160012010BDCA680B688BB1072A0B69E2
:104A000043EA42732BD00C7A4A6942EA84724968BD
:104A1000006F00EBC100036042604FF0000010BD6A
:104A2000072A10D00C7A4FEAC2624B6943EA8473BA
:104A30000C8A42EA044243EA02034968C06E00EB72
:104A400081000360E9E70B8A4FF060548A6942EA0B
:104A50000343CA6944EA022243EA0203EDE78A6992
:104A6000D5E730B5039C90F89850012D06D050F84A
:104A70009C1F41F004010160012030BD0068090164
:104A800041EA820141EA43012143C0F8801000203D
:104A900030BD704770470000F0B5002490F8985082
:104AA000022D06D050F89C1F41F008010160012042
:104AB000F0BD40290BD0412936D0056D8D4260D81C
:104AC00050F89C1F41F0200101600120F0BD0568F5
:104AD000D5F8A06016F4FE0F18D0D5F8A4607606BD
:104AE0001BD0D5F8A460F60105D5D5F8A06016F066
:104AF000004F00D50124D5F8A450C5F305252C445A
:104B0000456C466F654306EB85063FE050F89C1FF9
:104B100041F0200101600120F0BD50F89C1F41F4DC
:104B2000807101600120F0BD0568D5F8B06016F411
:104B3000FE0F18D0D5F8B46076061BD0D5F8B46057
:104B4000F60105D5D5F8B06016F0004F00D5012468
:104B5000D5F8B450C5F305252C44C56C866F654364
:104B600006EB850612E050F89C1F41F02001016021
:104B70000120F0BD50F89C1F41F4807101600120BC
:104B8000F0BD456DC66F4D4306EB8506356805F0F3
:104B9000804555602DB3356825F060451560356852
:104BA00005F000559560356805F000451561B5883C
:104BB000ADB2D5617568C5F30345D560756805F478
:104BC00080155561756805F4001595617568C5F324
:104BD0000665156275680836ED0F55620025174F9A
:104BE00009E03568C5F38A451560D8E716F805C0B1
:104BF00003F805C06D1CD2F80CC017F80CC0AC450A
:104C0000F4D8402909D041290BD0012220290CD207
:104C100000688A40C0F898200DE00068C0F8A840FD
:104C200009E00068C0F8B84005E0006801F01F0125
:104C30008A40C0F89C200020F0BD000080280108B8
:104C4000704700002DE9FE4F0446B64F38688007D4
:104C5000391D096800EA817002902068016D01F435
:104C60007041D0F854A00AEA010A016D01F00F0169
:104C7000D0F854B00BEA010B016D01F0F001426D68
:104C80000A400192016D01F07151D0F8548008EA98
:104C90000108016D01F06071426D0A400092416DA2
:104CA000056D4FF00009CE43F10509D4E943C9056C
:104CB00006D4B9150165C7F800902046FFF7C0FF7C
:104CC000700510D4E84340050DD42068D0F8DC20EE
:104CD000D0F8E41011404FF480620265C7F80090EC
:104CE000204600F069FB029858B18F4902980840AD
:104CF000216808650298800F386002992046FFF706
:104D00006BFEBAF1000F0BD0216887480AEA000059
:104D100008654FEA9A7038605146204600F04EFB15
:104D2000BBF1000F0BD021687F480BEA000008653B
:104D30004FEA9B7038605946204600F0D3FA01983C
:104D400058B1794901980840216808650198800F99
:104D500038600199204600F0E5FA30050BD4E843AD
:104D6000000508D421684FF400600865C7F800907A
:104D7000204600F024FBB00510D4E84380050DD494
:104D80002068D0F8D820D0F8E01011404FF400721D
:104D90000265C7F80090204600F00FFB30030BD4EB
:104DA000E843000308D421684FF400200865C7F8E1
:104DB0000090204600F094FAF0030BD4E843C003BF
:104DC00008D421684FF480300865C7F80090204669
:104DD00000F0F1FA70030BD4E843400308D42168D3
:104DE0004FF480200865C7F80090204600F0E2FAF2
:104DF000B0030ED4E84380030BD421684FF4003095
:104E00000865C7F80090D4F89C0040F08000C4F812
:104E10009C00009858B144490098084021680865F2
:104E20000098800F386000992046FFF733FEB8F1F4
:104E3000000F0DD021683C4808EA000008654FEAE1
:104E400098703860D4F89C0040EA0800C4F89C00D0
:104E50003649206888425BD160688168890757D0ED
:104E6000016A01F00F02416A1140026A02F0300249
:104E7000476A1740026A02F4C072D0F8248008EA38
:104E80000208026A02F4FC42456A1540026A02F412
:104E9000F022466A1640D0F82490D0F820A019B12C
:104EA0000162204600F083FA2FB16068076239463C
:104EB000204600F07EFA6FEA090040060ED46FEA41
:104EC0000A0040060AD46068C16B090CC26B02F08C
:104ED0003F0240230362204600F06AFAB8F1000F57
:104EE00006D06068C0F820804146204600F05EFA97
:104EF00035B160680562D4F89C002843C4F89C0072
:104F000036B160680662D4F89C003043C4F89C0057
:104F1000D4F89C00002802D02046FFF7BAFDBDE877
:104F2000FE8F000010A80040FFFFCF3F00A0004010
:104F30002DE9F04393B004464C2295496846FBF7AF
:104F400074FA6CB1934F2068B84202D100F58070BA
:104F500060604FF4407994F89800002620B108E092
:104F6000012013B0BDE8F08384F89960204600F07A
:104F700013F92068816921F01001816100F032FB92
:104F800005464FF003080DE000F02CFB401B0A28FB
:104F900008D954F89C0F40F00100206004F8048CFC
:104FA0000120DEE7206880690007EDD42068816970
:104FB00041F00101816100F015FB05460DE000F0B4
:104FC00011FB401B0A2808D954F89C0F40F001003F
:104FD000206004F8048C0120C3E720688069C007C2
:104FE000EDD02068816941F002018161207C0128B7
:104FF00039D02068816941F040018161607C0128DD
:1050000037D02068816921F480418161A07C01282A
:1050100035D02068816941F48051816120688169BF
:10502000A26821F44071114381612068816921F0F7
:10503000A40181612068016921F010010161E0682B
:10504000012822D030B302282BD02068816941F09A
:10505000800181612068016941F010010161E0680F
:10506000032818D022E02068816921F04001816185
:10507000C4E72068816941F480418161C6E7206806
:10508000816921F480518161C8E72068816941F01C
:10509000040181610AE02068816941F02001816199
:1050A00004E02068816941F020018161207E401E7A
:1050B0004106E069401E41EA0020216A491E08437A
:1050C000A18A491E40EA01402168C861A06848459C
:1050D0000FD1E16AA06A491E401E40EA0121206BFF
:1050E000401E41EA0011A08C401E41EA00402168A8
:1050F000C860206E28B1206850F8C01F626E11434E
:105100000160D4E91701C842694609D0206850F807
:10511000C82FA36E22F0070251F823301A43026011
:10512000206C48B1206850F8BC2F636C22F0070255
:1051300051F823301A430260A06C50B1206850F837
:10514000BC2FE36C22F0700251F8233042EA0312C4
:105150000260206D50B1206850F8BC2F636D22F4BE
:10516000E06251F8231042EA012101602068B84250
:1051700004D16068816821F00301816044F8946F74
:10518000A66001202071943C2046FDF79FF9E8E6D7
:105190009028010800A000402DE9F04186B00446A7
:1051A000142101A8FBF75AF9474B00252268022772
:1051B000464C4FF0090CDFF80C8119680C3C434E4B
:1051C0004348491C424527D11960012907D131685C
:1051D00041F480713160316801F48071009121687F
:1051E00041F008012160216801F0080100910321CC
:1051F0000191029703950495CDF814C001A900F020
:10520000DFF800220621132000F0DAFA132000F064
:10521000C9FA06B0BDE8F081DFF8B880424526D172
:105220001960012907D1306840F48070306030681F
:1052300000F480700090206840F002002060206838
:1052400000F0020000906020019002970395049501
:10525000CDF814C001A9204800F0B2F800220521C1
:10526000142000F0ADFA142000F09CFAD1E7DFF82A
:105270006CC06245CDD11960012907D1316841F474
:1052800080713160316801F480710091216841F0D2
:1052900008012160216801F0080100914FF440519C
:1052A00001910297039504950521059101A900F04C
:1052B00087F8002205219F2000F082FA9F2000F04D
:1052C00071FAA6E700A0004028000024EC44025830
:1052D000000C025800A400400004025800D4004012
:1052E0007047000010B50446C80716D00B49206867
:1052F000884212D10A484021FBF7B0F8084B402100
:105300002046A3F12802FFF7C7FB054804492838C7
:105310000068BDE81040FDF7EBB910BD00A00040EB
:105320004C92002410B50446C80621D511492068C6
:1053300088421DD110484021FBF790F80E4B4121C7
:105340002046A3F12802FFF7A7FB0B49283908687C
:10535000152807D016280BD1C968BDE810400648AB
:105360000CF064B8C968BDE8104003480CF05EB8A2
:1053700010BD000000A40040B492002490F89810E2
:10538000012906D050F89C1F41F004010160012062
:105390007047022180F8981001688A6922F00102A2
:1053A0008A610021C0F89C10002070477047704748
:1053B0007047704770477047704770477047704735
:1053C0002DE9F84F0022784D03264FF001080F27F2
:1053D0004FF0B04CE1E008FA02F31C409A46002C72
:1053E0007ED00B7903F00303012B01D0022B1BD1DC
:1053F000D0F80890530006FA03FB29EA0B09D1F80C
:105400000CB00BFA03FB4BEA090BC0F808B0436879
:1054100023EA0A0391F80490C9F3001909FA02F982
:1054200049EA0309C0F804900B79DB439B070ED0CF
:10543000D0F80C90530006FA03FA29EA0A09D1F8C9
:1054400008A00AFA03FA4AEA090AC0F80CA00B7984
:1054500003F00303022B14D1D30800EB8303D3F82A
:1054600020A04FEA42794FEAD96907FA09FB2AEAF4
:105470000B0AD1F810B00BFA09FB4BEA0A0BC3F880
:1054800020B0D0F80090530006FA03FA29EA0A097E
:1054900091F804A00AF0030A0AFA03FA4AEA090A90
:1054A000C0F800A04B6813F4403F75D03F4BD3F8D1
:1054B000009049F00209C3F800901B6803F0020352
:1054C000009322F0030909F1B049D9F808B4930711
:1054D0004FEA137A07FA0AF32BEA030B344B00E086
:1054E0005AE0984201D1002328E0324B984201D182
:1054F000012323E0304B984201D102231EE02F4BC1
:10550000984201D1032319E02D4B984201D1042385
:1055100014E02C4B984201D105230FE02A4B98420E
:1055200001D106230AE0294B984201D1072305E067
:10553000274B984201D1092300E00A2303FA0AF31A
:1055400043EA0B03C9F80834DCF80030A343D1F870
:1055500004905FEAC92900D52343CCF80030DCF879
:105560000430A343D1F804905FEA892900D523438E
:10557000CCF804306B68A343D1F804905FEA893912
:1055800000D523436B602B68A343D1F804905FEAF6
:10559000C93900D523432B60521C0C6834FA02F33E
:1055A0007FF419AFBDE8F88F80000058F44402582A
:1055B000000002580004025800080258000C02586B
:1055C000001002580014025800180258001C02581B
:1055D00000240258002A01D08161704709048161CA
:1055E0007047000001488068704700002C000024CC
:1055F0000248816802781144816070472C000024C1
:1056000010B5032000F0FCF802F020FA0F490A68F8
:10561000C2F303230E4AD35C03F01F03D84009688A
:1056200001F00F01515C0B4A01F01F0120FA01F15A
:10563000116009490860012000F010F808B101204C
:1056400010BD00F09DF8002010BD00001844025865
:10565000042901083C0000243800002410B58AB059
:105660000446102C30D2002221461C2000F0A8F85D
:105670001C2000F097F8194804601948016841F0AF
:1056800001010160006800F00100009001A902A87A
:1056900002F066F90798C8B102F0B4F94000114968
:1056A000B0FBF1F1491E10484FF08042026040F219
:1056B000E732C260416000210161816003F042FA7B
:1056C00038B101200AB010BD0120FBE702F09AF9C1
:1056D000E5E7054803F05EFAF4E700003000002437
:1056E000E844025840420F007C0D0024134A4178E0
:1056F0001160124908310A6822F001020A600B1F8A
:1057000042681A60027BC37A120742EA0362837A14
:1057100042EAC342437B42EA8342837B42EA4342FA
:10572000C37B42EA0342437A42EA0322037A0078C7
:1057300042EA430202430A607047000098ED00E02D
:10574000BFF35F8F0448016821F480310160024992
:10575000002070310860704724ED00E0074940F0F8
:105760000100086005487038016841F4803101602B
:10577000BFF34F8FBFF36F8F7047000094ED00E0D1
:1057800082B00748016841F002010160006800F042
:105790000200019000220F21901E02B000F010B80C
:1057A000F4440258002809DB012100F01F02914057
:1057B0004009800000F1E020C0F8001170470000AF
:1057C000F0B40D460D4B1B68C3F30223C3F107046D
:1057D000042C00D90424191D072901D2002300E05C
:1057E000DB1E012606FA04F1491E294099409E401D
:1057F000761E16403143F0BC0AF029BD0CED00E0E6
:1058000000F00701054A10684FF6FF03184040EA10
:105810000120034908431060704700000CED00E0D0
:105820000000FA0501680122C0F8D824002280F89F
:10583000CC24886940F000608861486D024A1043BA
:1058400048650020704700000300001070470068A2
:1058500041620020704770B50368586A002907D07C
:105860009C6A00EB14440020491E4FF482750AE044
:1058700040EA024098620DE005EB80069E5904EB79
:105880001644401CC0B28842F6D305EB810144EABD
:1058900002405850002070BDD0F8E00408F04BBD25
:1058A00001EBC10200EB8202D0F8E004126A08F0BA
:1058B0006FBC01EBC10200EB8202D0F8E004D2F829
:1058C000602208F0D3BCD0F8E00408F036BD0A0628
:1058D00001F00F0101EBC10100EB810101D5143191
:1058E00001E001F51571006809F09ABC70B5044635
:1058F0004FF0010201F00F004FF000050B0600EB26
:10590000C00104EB810102D514314A7002E001F5B7
:1059100015714D70087094F89404012808D084F82B
:105920009424206809F094F984F89454002070BD00
:10593000022070BD70B5044601F00F00227990423C
:1059400001D9012070BD0B064FF0010201F00F01DB
:105950004FF0000501EBC10104EB810102D51431C8
:105960004A7002E001F515714D708D70087094F861
:105970009404012808D084F89424206809F0CEFA11
:1059800084F89454002070BD022070BD01F00F0116
:1059900001EBC10100EB8100D0F8680270472DE9EE
:1059A000F04104464FF0010601F00F004FF00005F2
:1059B0000F0600EBC00104EB810102D514314E70DB
:1059C00002E001F515714D700870C2F30A028A6099
:1059D0000B714A7802B14883022B00D14D7194F8C3
:1059E0009404012809D084F89464206809F070F8C0
:1059F000284684F89454BDE8F0810220FBE710B5F6
:105A000001F00F0404EBC40100EB810101F51571F5
:105A1000CA600B6100234B614B700C708379012BC2
:105A200000D1CA618279006809F0D0FA002010BD67
:105A300070B504460D4605F00F002179884201D962
:105A4000012070BD29064FF000064FF0010206D577
:105A500000EBC00104EB810114314A7006E005EB54
:105A6000C50104EB810101F515714E708A70087053
:105A700094F89404012807D084F89424206809F04D
:105A800079FA280702D007E0022070BDA17904F25C
:105A90009C42206809F018FA84F89464002070BDD4
:105AA00010B501F00F0404EBC40100EB81011431C7
:105AB000CA600B6100234B6101234B700C7083792A
:105AC000012B00D1CA618279006809F07FFA0020B9
:105AD00010BD2DE9F84F04462568284609F04AFC18
